{
  "_format": "hh-sol-artifact-1",
  "contractName": "Store",
  "sourceName": "contracts/Store.sol",
  "abi": [
    {
      "inputs": [],
      "stateMutability": "payable",
      "type": "constructor"
    },
    {
      "anonymous": false,
      "inputs": [
        {
          "indexed": true,
          "internalType": "address",
          "name": "owner",
          "type": "address"
        },
        {
          "indexed": true,
          "internalType": "address",
          "name": "spender",
          "type": "address"
        },
        {
          "indexed": false,
          "internalType": "uint256",
          "name": "value",
          "type": "uint256"
        }
      ],
      "name": "Approval",
      "type": "event"
    },
    {
      "anonymous": false,
      "inputs": [
        {
          "indexed": true,
          "internalType": "address",
          "name": "previousOwner",
          "type": "address"
        },
        {
          "indexed": true,
          "internalType": "address",
          "name": "newOwner",
          "type": "address"
        }
      ],
      "name": "OwnershipTransferred",
      "type": "event"
    },
    {
      "anonymous": false,
      "inputs": [
        {
          "indexed": true,
          "internalType": "address",
          "name": "from",
          "type": "address"
        },
        {
          "indexed": true,
          "internalType": "address",
          "name": "to",
          "type": "address"
        },
        {
          "indexed": false,
          "internalType": "uint256",
          "name": "value",
          "type": "uint256"
        }
      ],
      "name": "Transfer",
      "type": "event"
    },
    {
      "anonymous": false,
      "inputs": [
        {
          "indexed": false,
          "internalType": "address",
          "name": "sender",
          "type": "address"
        },
        {
          "indexed": false,
          "internalType": "address",
          "name": "receiver",
          "type": "address"
        },
        {
          "indexed": false,
          "internalType": "uint256",
          "name": "token_out",
          "type": "uint256"
        }
      ],
      "name": "claim",
      "type": "event"
    },
    {
      "anonymous": false,
      "inputs": [
        {
          "indexed": false,
          "internalType": "address",
          "name": "user",
          "type": "address"
        },
        {
          "indexed": false,
          "internalType": "uint256",
          "name": "amount_in",
          "type": "uint256"
        }
      ],
      "name": "deposit",
      "type": "event"
    },
    {
      "anonymous": false,
      "inputs": [
        {
          "indexed": false,
          "internalType": "address",
          "name": "receiver",
          "type": "address"
        },
        {
          "indexed": false,
          "internalType": "uint256",
          "name": "token_out",
          "type": "uint256"
        }
      ],
      "name": "refund",
      "type": "event"
    },
    {
      "inputs": [
        {
          "internalType": "address",
          "name": "owner",
          "type": "address"
        },
        {
          "internalType": "address",
          "name": "spender",
          "type": "address"
        }
      ],
      "name": "allowance",
      "outputs": [
        {
          "internalType": "uint256",
          "name": "",
          "type": "uint256"
        }
      ],
      "stateMutability": "view",
      "type": "function"
    },
    {
      "inputs": [
        {
          "internalType": "address",
          "name": "spender",
          "type": "address"
        },
        {
          "internalType": "uint256",
          "name": "amount",
          "type": "uint256"
        }
      ],
      "name": "approve",
      "outputs": [
        {
          "internalType": "bool",
          "name": "",
          "type": "bool"
        }
      ],
      "stateMutability": "nonpayable",
      "type": "function"
    },
    {
      "inputs": [
        {
          "internalType": "address",
          "name": "account",
          "type": "address"
        }
      ],
      "name": "balanceOf",
      "outputs": [
        {
          "internalType": "uint256",
          "name": "",
          "type": "uint256"
        }
      ],
      "stateMutability": "view",
      "type": "function"
    },
    {
      "inputs": [
        {
          "internalType": "uint256",
          "name": "amount",
          "type": "uint256"
        }
      ],
      "name": "burn",
      "outputs": [],
      "stateMutability": "nonpayable",
      "type": "function"
    },
    {
      "inputs": [
        {
          "internalType": "address",
          "name": "account",
          "type": "address"
        },
        {
          "internalType": "uint256",
          "name": "amount",
          "type": "uint256"
        }
      ],
      "name": "burnFrom",
      "outputs": [],
      "stateMutability": "nonpayable",
      "type": "function"
    },
    {
      "inputs": [],
      "name": "claimToken",
      "outputs": [],
      "stateMutability": "nonpayable",
      "type": "function"
    },
    {
      "inputs": [],
      "name": "decimals",
      "outputs": [
        {
          "internalType": "uint8",
          "name": "",
          "type": "uint8"
        }
      ],
      "stateMutability": "view",
      "type": "function"
    },
    {
      "inputs": [
        {
          "internalType": "address",
          "name": "spender",
          "type": "address"
        },
        {
          "internalType": "uint256",
          "name": "subtractedValue",
          "type": "uint256"
        }
      ],
      "name": "decreaseAllowance",
      "outputs": [
        {
          "internalType": "bool",
          "name": "",
          "type": "bool"
        }
      ],
      "stateMutability": "nonpayable",
      "type": "function"
    },
    {
      "inputs": [
        {
          "internalType": "uint256",
          "name": "amount_in",
          "type": "uint256"
        }
      ],
      "name": "depositETH",
      "outputs": [],
      "stateMutability": "payable",
      "type": "function"
    },
    {
      "inputs": [],
      "name": "getAppFee",
      "outputs": [
        {
          "internalType": "uint256",
          "name": "",
          "type": "uint256"
        }
      ],
      "stateMutability": "view",
      "type": "function"
    },
    {
      "inputs": [
        {
          "internalType": "address",
          "name": "_address",
          "type": "address"
        }
      ],
      "name": "getBalance",
      "outputs": [
        {
          "internalType": "uint256",
          "name": "",
          "type": "uint256"
        }
      ],
      "stateMutability": "view",
      "type": "function"
    },
    {
      "inputs": [],
      "name": "getBuyerInformation",
      "outputs": [
        {
          "components": [
            {
              "internalType": "uint256",
              "name": "valueInput",
              "type": "uint256"
            },
            {
              "internalType": "uint256",
              "name": "valueOutput",
              "type": "uint256"
            },
            {
              "internalType": "uint256",
              "name": "countTime",
              "type": "uint256"
            },
            {
              "internalType": "uint256",
              "name": "currentTimeDeposit",
              "type": "uint256"
            },
            {
              "internalType": "uint256",
              "name": "currnetTimeClaim",
              "type": "uint256"
            },
            {
              "internalType": "uint256",
              "name": "currentTimeRefund",
              "type": "uint256"
            }
          ],
          "internalType": "struct Store.BuyerInfo",
          "name": "",
          "type": "tuple"
        }
      ],
      "stateMutability": "view",
      "type": "function"
    },
    {
      "inputs": [],
      "name": "getSpaceTimeClaim",
      "outputs": [
        {
          "internalType": "uint256",
          "name": "",
          "type": "uint256"
        }
      ],
      "stateMutability": "view",
      "type": "function"
    },
    {
      "inputs": [],
      "name": "getSwapRate",
      "outputs": [
        {
          "internalType": "uint256",
          "name": "",
          "type": "uint256"
        }
      ],
      "stateMutability": "view",
      "type": "function"
    },
    {
      "inputs": [
        {
          "internalType": "address",
          "name": "spender",
          "type": "address"
        },
        {
          "internalType": "uint256",
          "name": "addedValue",
          "type": "uint256"
        }
      ],
      "name": "increaseAllowance",
      "outputs": [
        {
          "internalType": "bool",
          "name": "",
          "type": "bool"
        }
      ],
      "stateMutability": "nonpayable",
      "type": "function"
    },
    {
      "inputs": [
        {
          "internalType": "address",
          "name": "",
          "type": "address"
        }
      ],
      "name": "listBuyerInfor",
      "outputs": [
        {
          "internalType": "uint256",
          "name": "valueInput",
          "type": "uint256"
        },
        {
          "internalType": "uint256",
          "name": "valueOutput",
          "type": "uint256"
        },
        {
          "internalType": "uint256",
          "name": "countTime",
          "type": "uint256"
        },
        {
          "internalType": "uint256",
          "name": "currentTimeDeposit",
          "type": "uint256"
        },
        {
          "internalType": "uint256",
          "name": "currnetTimeClaim",
          "type": "uint256"
        },
        {
          "internalType": "uint256",
          "name": "currentTimeRefund",
          "type": "uint256"
        }
      ],
      "stateMutability": "view",
      "type": "function"
    },
    {
      "inputs": [
        {
          "internalType": "address",
          "name": "to",
          "type": "address"
        },
        {
          "internalType": "uint256",
          "name": "amount",
          "type": "uint256"
        }
      ],
      "name": "mint",
      "outputs": [],
      "stateMutability": "nonpayable",
      "type": "function"
    },
    {
      "inputs": [],
      "name": "name",
      "outputs": [
        {
          "internalType": "string",
          "name": "",
          "type": "string"
        }
      ],
      "stateMutability": "view",
      "type": "function"
    },
    {
      "inputs": [],
      "name": "owner",
      "outputs": [
        {
          "internalType": "address",
          "name": "",
          "type": "address"
        }
      ],
      "stateMutability": "view",
      "type": "function"
    },
    {
      "inputs": [],
      "name": "refundEth",
      "outputs": [],
      "stateMutability": "nonpayable",
      "type": "function"
    },
    {
      "inputs": [],
      "name": "renounceOwnership",
      "outputs": [],
      "stateMutability": "nonpayable",
      "type": "function"
    },
    {
      "inputs": [],
      "name": "symbol",
      "outputs": [
        {
          "internalType": "string",
          "name": "",
          "type": "string"
        }
      ],
      "stateMutability": "view",
      "type": "function"
    },
    {
      "inputs": [],
      "name": "totalSupply",
      "outputs": [
        {
          "internalType": "uint256",
          "name": "",
          "type": "uint256"
        }
      ],
      "stateMutability": "view",
      "type": "function"
    },
    {
      "inputs": [
        {
          "internalType": "address",
          "name": "to",
          "type": "address"
        },
        {
          "internalType": "uint256",
          "name": "amount",
          "type": "uint256"
        }
      ],
      "name": "transfer",
      "outputs": [
        {
          "internalType": "bool",
          "name": "",
          "type": "bool"
        }
      ],
      "stateMutability": "nonpayable",
      "type": "function"
    },
    {
      "inputs": [
        {
          "internalType": "address",
          "name": "from",
          "type": "address"
        },
        {
          "internalType": "address",
          "name": "to",
          "type": "address"
        },
        {
          "internalType": "uint256",
          "name": "amount",
          "type": "uint256"
        }
      ],
      "name": "transferFrom",
      "outputs": [
        {
          "internalType": "bool",
          "name": "",
          "type": "bool"
        }
      ],
      "stateMutability": "nonpayable",
      "type": "function"
    },
    {
      "inputs": [
        {
          "internalType": "address",
          "name": "newOwner",
          "type": "address"
        }
      ],
      "name": "transferOwnership",
      "outputs": [],
      "stateMutability": "nonpayable",
      "type": "function"
    },
    {
      "stateMutability": "payable",
      "type": "receive"
    }
  ],
  "bytecode": "0x6080604052655af3107a4000600655612710600755600360085560036009556040518060400160405280600b81526020017f546f6b656e4552433230200000000000000000000000000000000000000000008152506040518060400160405280600381526020017f544b4500000000000000000000000000000000000000000000000000000000008152508160039080519060200190620000a2929190620001f3565b508060049080519060200190620000bb929190620001f3565b505050620000de620000d26200012560201b60201c565b6200012d60201b60201c565b33600a60006101000a81548173ffffffffffffffffffffffffffffffffffffffff021916908373ffffffffffffffffffffffffffffffffffffffff16021790555062000308565b600033905090565b6000600560009054906101000a900473ffffffffffffffffffffffffffffffffffffffff16905081600560006101000a81548173ffffffffffffffffffffffffffffffffffffffff021916908373ffffffffffffffffffffffffffffffffffffffff1602179055508173ffffffffffffffffffffffffffffffffffffffff168173ffffffffffffffffffffffffffffffffffffffff167f8be0079c531659141344cd1fd0a4f28419497f9722a3daafe3b4186f6b6457e060405160405180910390a35050565b8280546200020190620002a3565b90600052602060002090601f01602090048101928262000225576000855562000271565b82601f106200024057805160ff191683800117855562000271565b8280016001018555821562000271579182015b828111156200027057825182559160200191906001019062000253565b5b50905062000280919062000284565b5090565b5b808211156200029f57600081600090555060010162000285565b5090565b60006002820490506001821680620002bc57607f821691505b60208210811415620002d357620002d2620002d9565b5b50919050565b7f4e487b7100000000000000000000000000000000000000000000000000000000600052602260045260246000fd5b6128ec80620003186000396000f3fe6080604052600436106101855760003560e01c80635358fbda116100d157806395d89b411161008a578063b5b381d911610064578063b5b381d914610575578063dd62ed3e146105a0578063f2fde38b146105dd578063f8b2cb4f146106065761018c565b806395d89b41146104d0578063a457c2d7146104fb578063a9059cbb146105385761018c565b80635358fbda146103e1578063581e5ed4146103fd57806370a0823114610428578063715018a61461046557806379cc67901461047c5780638da5cb5b146104a55761018c565b806323b872dd1161013e57806340c10f191161011857806340c10f191461034d57806342966c68146103765780634451d89f1461039f578063508d08b5146103b65761018c565b806323b872dd146102a8578063313ce567146102e557806339509351146103105761018c565b806305f2866214610191578063068eb48f146101d357806306fdde03146101fe578063095ea7b31461022957806318160ddd146102665780631faa4133146102915761018c565b3661018c57005b600080fd5b34801561019d57600080fd5b506101b860048036038101906101b39190611bfe565b610643565b6040516101ca9695949392919061253a565b60405180910390f35b3480156101df57600080fd5b506101e861067f565b6040516101f5919061251f565b60405180910390f35b34801561020a57600080fd5b50610213610689565b6040516102209190612342565b60405180910390f35b34801561023557600080fd5b50610250600480360381019061024b9190611cb2565b61071b565b60405161025d9190612327565b60405180910390f35b34801561027257600080fd5b5061027b61073e565b604051610288919061251f565b60405180910390f35b34801561029d57600080fd5b506102a6610748565b005b3480156102b457600080fd5b506102cf60048036038101906102ca9190611c63565b6108f8565b6040516102dc9190612327565b60405180910390f35b3480156102f157600080fd5b506102fa610927565b604051610307919061259b565b60405180910390f35b34801561031c57600080fd5b5061033760048036038101906103329190611cb2565b610930565b6040516103449190612327565b60405180910390f35b34801561035957600080fd5b50610374600480360381019061036f9190611cb2565b610967565b005b34801561038257600080fd5b5061039d60048036038101906103989190611cee565b6109f1565b005b3480156103ab57600080fd5b506103b4610a05565b005b3480156103c257600080fd5b506103cb610b9a565b6040516103d8919061251f565b60405180910390f35b6103fb60048036038101906103f69190611cee565b610ba4565b005b34801561040957600080fd5b50610412610e34565b60405161041f9190612504565b60405180910390f35b34801561043457600080fd5b5061044f600480360381019061044a9190611bfe565b610ec7565b60405161045c919061251f565b60405180910390f35b34801561047157600080fd5b5061047a610f0f565b005b34801561048857600080fd5b506104a3600480360381019061049e9190611cb2565b610f97565b005b3480156104b157600080fd5b506104ba610fb7565b6040516104c791906122ac565b60405180910390f35b3480156104dc57600080fd5b506104e5610fe1565b6040516104f29190612342565b60405180910390f35b34801561050757600080fd5b50610522600480360381019061051d9190611cb2565b611073565b60405161052f9190612327565b60405180910390f35b34801561054457600080fd5b5061055f600480360381019061055a9190611cb2565b6110ea565b60405161056c9190612327565b60405180910390f35b34801561058157600080fd5b5061058a61110d565b604051610597919061251f565b60405180910390f35b3480156105ac57600080fd5b506105c760048036038101906105c29190611c27565b611117565b6040516105d4919061251f565b60405180910390f35b3480156105e957600080fd5b5061060460048036038101906105ff9190611bfe565b61119e565b005b34801561061257600080fd5b5061062d60048036038101906106289190611bfe565b611296565b60405161063a919061251f565b60405180910390f35b600b6020528060005260406000206000915090508060000154908060010154908060020154908060030154908060040154908060050154905086565b6000600754905090565b6060600380546106989061276f565b80601f01602080910402602001604051908101604052809291908181526020018280546106c49061276f565b80156107115780601f106106e657610100808354040283529160200191610711565b820191906000526020600020905b8154815290600101906020018083116106f457829003601f168201915b5050505050905090565b6000806107266112b7565b90506107338185856112bf565b600191505092915050565b6000600254905090565b42600b60003373ffffffffffffffffffffffffffffffffffffffff1673ffffffffffffffffffffffffffffffffffffffff16815260200190815260200160002060050154106107cc576040517f08c379a00000000000000000000000000000000000000000000000000000000081526004016107c3906124e4565b60405180910390fd5b3373ffffffffffffffffffffffffffffffffffffffff166108fc670de0b6b3a7640000600b60003373ffffffffffffffffffffffffffffffffffffffff1673ffffffffffffffffffffffffffffffffffffffff1681526020019081526020016000206001015461083c9190612659565b9081150290604051600060405180830381858888f19350505050158015610867573d6000803e3d6000fd5b507f410085df54bf273a749e521cef84e728e697569a719b84888672469ca66d58d433670de0b6b3a7640000600b60003373ffffffffffffffffffffffffffffffffffffffff1673ffffffffffffffffffffffffffffffffffffffff168152602001908152602001600020600101546108e09190612659565b6040516108ee9291906122fe565b60405180910390a1565b6000806109036112b7565b905061091085828561148a565b61091b858585611516565b60019150509392505050565b60006012905090565b60008061093b6112b7565b905061095c81858561094d8589611117565b61095791906125d2565b6112bf565b600191505092915050565b61096f6112b7565b73ffffffffffffffffffffffffffffffffffffffff1661098d610fb7565b73ffffffffffffffffffffffffffffffffffffffff16146109e3576040517f08c379a00000000000000000000000000000000000000000000000000000000081526004016109da90612424565b60405180910390fd5b6109ed8282611797565b5050565b610a026109fc6112b7565b826118f7565b50565b42600b60003373ffffffffffffffffffffffffffffffffffffffff1673ffffffffffffffffffffffffffffffffffffffff1681526020019081526020016000206004015410610a89576040517f08c379a0000000000000000000000000000000000000000000000000000000008152600401610a80906124e4565b60405180910390fd5b610af8600a60009054906101000a900473ffffffffffffffffffffffffffffffffffffffff1633600b60003373ffffffffffffffffffffffffffffffffffffffff1673ffffffffffffffffffffffffffffffffffffffff168152602001908152602001600020600101546108f8565b507f996cba682088db5542850938e9bc4c0628f01143c672740ba4df894eb73ad3ce600a60009054906101000a900473ffffffffffffffffffffffffffffffffffffffff1633600b60003373ffffffffffffffffffffffffffffffffffffffff1673ffffffffffffffffffffffffffffffffffffffff16815260200190815260200160002060010154604051610b90939291906122c7565b60405180910390a1565b6000600654905090565b3373ffffffffffffffffffffffffffffffffffffffff166108fc6006548334610bcd91906126b3565b610bd791906126b3565b9081150290604051600060405180830381858888f19350505050158015610c02573d6000803e3d6000fd5b5080600b60003373ffffffffffffffffffffffffffffffffffffffff1673ffffffffffffffffffffffffffffffffffffffff16815260200190815260200160002060000181905550600754670de0b6b3a764000082610c619190612628565b610c6b9190612659565b600b60003373ffffffffffffffffffffffffffffffffffffffff1673ffffffffffffffffffffffffffffffffffffffff16815260200190815260200160002060010181905550600b60003373ffffffffffffffffffffffffffffffffffffffff1673ffffffffffffffffffffffffffffffffffffffff1681526020019081526020016000206002016000815480929190610d04906127a1565b919050555042600b60003373ffffffffffffffffffffffffffffffffffffffff1673ffffffffffffffffffffffffffffffffffffffff1681526020019081526020016000206003018190555060085442610d5e91906125d2565b600b60003373ffffffffffffffffffffffffffffffffffffffff1673ffffffffffffffffffffffffffffffffffffffff1681526020019081526020016000206004018190555060095442610db291906125d2565b600b60003373ffffffffffffffffffffffffffffffffffffffff1673ffffffffffffffffffffffffffffffffffffffff168152602001908152602001600020600501819055507f47e7ef24b3022e382e65b1298581281f0ae273ac4f76464efcf5b06769264f2f3382604051610e299291906122fe565b60405180910390a150565b610e3c611b9e565b600b60003373ffffffffffffffffffffffffffffffffffffffff1673ffffffffffffffffffffffffffffffffffffffff1681526020019081526020016000206040518060c00160405290816000820154815260200160018201548152602001600282015481526020016003820154815260200160048201548152602001600582015481525050905090565b60008060008373ffffffffffffffffffffffffffffffffffffffff1673ffffffffffffffffffffffffffffffffffffffff168152602001908152602001600020549050919050565b610f176112b7565b73ffffffffffffffffffffffffffffffffffffffff16610f35610fb7565b73ffffffffffffffffffffffffffffffffffffffff1614610f8b576040517f08c379a0000000000000000000000000000000000000000000000000000000008152600401610f8290612424565b60405180910390fd5b610f956000611ace565b565b610fa982610fa36112b7565b8361148a565b610fb382826118f7565b5050565b6000600560009054906101000a900473ffffffffffffffffffffffffffffffffffffffff16905090565b606060048054610ff09061276f565b80601f016020809104026020016040519081016040528092919081815260200182805461101c9061276f565b80156110695780601f1061103e57610100808354040283529160200191611069565b820191906000526020600020905b81548152906001019060200180831161104c57829003601f168201915b5050505050905090565b60008061107e6112b7565b9050600061108c8286611117565b9050838110156110d1576040517f08c379a00000000000000000000000000000000000000000000000000000000081526004016110c8906124a4565b60405180910390fd5b6110de82868684036112bf565b60019250505092915050565b6000806110f56112b7565b9050611102818585611516565b600191505092915050565b6000600854905090565b6000600160008473ffffffffffffffffffffffffffffffffffffffff1673ffffffffffffffffffffffffffffffffffffffff16815260200190815260200160002060008373ffffffffffffffffffffffffffffffffffffffff1673ffffffffffffffffffffffffffffffffffffffff16815260200190815260200160002054905092915050565b6111a66112b7565b73ffffffffffffffffffffffffffffffffffffffff166111c4610fb7565b73ffffffffffffffffffffffffffffffffffffffff161461121a576040517f08c379a000000000000000000000000000000000000000000000000000000000815260040161121190612424565b60405180910390fd5b600073ffffffffffffffffffffffffffffffffffffffff168173ffffffffffffffffffffffffffffffffffffffff16141561128a576040517f08c379a0000000000000000000000000000000000000000000000000000000008152600401611281906123a4565b60405180910390fd5b61129381611ace565b50565b60008173ffffffffffffffffffffffffffffffffffffffff16319050919050565b600033905090565b600073ffffffffffffffffffffffffffffffffffffffff168373ffffffffffffffffffffffffffffffffffffffff16141561132f576040517f08c379a000000000000000000000000000000000000000000000000000000000815260040161132690612484565b60405180910390fd5b600073ffffffffffffffffffffffffffffffffffffffff168273ffffffffffffffffffffffffffffffffffffffff16141561139f576040517f08c379a0000000000000000000000000000000000000000000000000000000008152600401611396906123c4565b60405180910390fd5b80600160008573ffffffffffffffffffffffffffffffffffffffff1673ffffffffffffffffffffffffffffffffffffffff16815260200190815260200160002060008473ffffffffffffffffffffffffffffffffffffffff1673ffffffffffffffffffffffffffffffffffffffff168152602001908152602001600020819055508173ffffffffffffffffffffffffffffffffffffffff168373ffffffffffffffffffffffffffffffffffffffff167f8c5be1e5ebec7d5bd14f71427d1e84f3dd0314c0f7b2291e5b200ac8c7c3b9258360405161147d919061251f565b60405180910390a3505050565b60006114968484611117565b90507fffffffffffffffffffffffffffffffffffffffffffffffffffffffffffffffff81146115105781811015611502576040517f08c379a00000000000000000000000000000000000000000000000000000000081526004016114f9906123e4565b60405180910390fd5b61150f84848484036112bf565b5b50505050565b600073ffffffffffffffffffffffffffffffffffffffff168373ffffffffffffffffffffffffffffffffffffffff161415611586576040517f08c379a000000000000000000000000000000000000000000000000000000000815260040161157d90612464565b60405180910390fd5b600073ffffffffffffffffffffffffffffffffffffffff168273ffffffffffffffffffffffffffffffffffffffff1614156115f6576040517f08c379a00000000000000000000000000000000000000000000000000000000081526004016115ed90612364565b60405180910390fd5b611601838383611b94565b60008060008573ffffffffffffffffffffffffffffffffffffffff1673ffffffffffffffffffffffffffffffffffffffff16815260200190815260200160002054905081811015611687576040517f08c379a000000000000000000000000000000000000000000000000000000000815260040161167e90612404565b60405180910390fd5b8181036000808673ffffffffffffffffffffffffffffffffffffffff1673ffffffffffffffffffffffffffffffffffffffff16815260200190815260200160002081905550816000808573ffffffffffffffffffffffffffffffffffffffff1673ffffffffffffffffffffffffffffffffffffffff168152602001908152602001600020600082825461171a91906125d2565b925050819055508273ffffffffffffffffffffffffffffffffffffffff168473ffffffffffffffffffffffffffffffffffffffff167fddf252ad1be2c89b69c2b068fc378daa952ba7f163c4a11628f55a4df523b3ef8460405161177e919061251f565b60405180910390a3611791848484611b99565b50505050565b600073ffffffffffffffffffffffffffffffffffffffff168273ffffffffffffffffffffffffffffffffffffffff161415611807576040517f08c379a00000000000000000000000000000000000000000000000000000000081526004016117fe906124c4565b60405180910390fd5b61181360008383611b94565b806002600082825461182591906125d2565b92505081905550806000808473ffffffffffffffffffffffffffffffffffffffff1673ffffffffffffffffffffffffffffffffffffffff168152602001908152602001600020600082825461187a91906125d2565b925050819055508173ffffffffffffffffffffffffffffffffffffffff16600073ffffffffffffffffffffffffffffffffffffffff167fddf252ad1be2c89b69c2b068fc378daa952ba7f163c4a11628f55a4df523b3ef836040516118df919061251f565b60405180910390a36118f360008383611b99565b5050565b600073ffffffffffffffffffffffffffffffffffffffff168273ffffffffffffffffffffffffffffffffffffffff161415611967576040517f08c379a000000000000000000000000000000000000000000000000000000000815260040161195e90612444565b60405180910390fd5b61197382600083611b94565b60008060008473ffffffffffffffffffffffffffffffffffffffff1673ffffffffffffffffffffffffffffffffffffffff168152602001908152602001600020549050818110156119f9576040517f08c379a00000000000000000000000000000000000000000000000000000000081526004016119f090612384565b60405180910390fd5b8181036000808573ffffffffffffffffffffffffffffffffffffffff1673ffffffffffffffffffffffffffffffffffffffff168152602001908152602001600020819055508160026000828254611a5091906126b3565b92505081905550600073ffffffffffffffffffffffffffffffffffffffff168373ffffffffffffffffffffffffffffffffffffffff167fddf252ad1be2c89b69c2b068fc378daa952ba7f163c4a11628f55a4df523b3ef84604051611ab5919061251f565b60405180910390a3611ac983600084611b99565b505050565b6000600560009054906101000a900473ffffffffffffffffffffffffffffffffffffffff16905081600560006101000a81548173ffffffffffffffffffffffffffffffffffffffff021916908373ffffffffffffffffffffffffffffffffffffffff1602179055508173ffffffffffffffffffffffffffffffffffffffff168173ffffffffffffffffffffffffffffffffffffffff167f8be0079c531659141344cd1fd0a4f28419497f9722a3daafe3b4186f6b6457e060405160405180910390a35050565b505050565b505050565b6040518060c001604052806000815260200160008152602001600081526020016000815260200160008152602001600081525090565b600081359050611be381612888565b92915050565b600081359050611bf88161289f565b92915050565b600060208284031215611c1057600080fd5b6000611c1e84828501611bd4565b91505092915050565b60008060408385031215611c3a57600080fd5b6000611c4885828601611bd4565b9250506020611c5985828601611bd4565b9150509250929050565b600080600060608486031215611c7857600080fd5b6000611c8686828701611bd4565b9350506020611c9786828701611bd4565b9250506040611ca886828701611be9565b9150509250925092565b60008060408385031215611cc557600080fd5b6000611cd385828601611bd4565b9250506020611ce485828601611be9565b9150509250929050565b600060208284031215611d0057600080fd5b6000611d0e84828501611be9565b91505092915050565b611d20816126e7565b82525050565b611d2f816126f9565b82525050565b6000611d40826125b6565b611d4a81856125c1565b9350611d5a81856020860161273c565b611d6381612877565b840191505092915050565b6000611d7b6023836125c1565b91507f45524332303a207472616e7366657220746f20746865207a65726f206164647260008301527f65737300000000000000000000000000000000000000000000000000000000006020830152604082019050919050565b6000611de16022836125c1565b91507f45524332303a206275726e20616d6f756e7420657863656564732062616c616e60008301527f63650000000000000000000000000000000000000000000000000000000000006020830152604082019050919050565b6000611e476026836125c1565b91507f4f776e61626c653a206e6577206f776e657220697320746865207a65726f206160008301527f64647265737300000000000000000000000000000000000000000000000000006020830152604082019050919050565b6000611ead6022836125c1565b91507f45524332303a20617070726f766520746f20746865207a65726f20616464726560008301527f73730000000000000000000000000000000000000000000000000000000000006020830152604082019050919050565b6000611f13601d836125c1565b91507f45524332303a20696e73756666696369656e7420616c6c6f77616e63650000006000830152602082019050919050565b6000611f536026836125c1565b91507f45524332303a207472616e7366657220616d6f756e742065786365656473206260008301527f616c616e636500000000000000000000000000000000000000000000000000006020830152604082019050919050565b6000611fb96020836125c1565b91507f4f776e61626c653a2063616c6c6572206973206e6f7420746865206f776e65726000830152602082019050919050565b6000611ff96021836125c1565b91507f45524332303a206275726e2066726f6d20746865207a65726f2061646472657360008301527f73000000000000000000000000000000000000000000000000000000000000006020830152604082019050919050565b600061205f6025836125c1565b91507f45524332303a207472616e736665722066726f6d20746865207a65726f20616460008301527f64726573730000000000000000000000000000000000000000000000000000006020830152604082019050919050565b60006120c56024836125c1565b91507f45524332303a20617070726f76652066726f6d20746865207a65726f2061646460008301527f72657373000000000000000000000000000000000000000000000000000000006020830152604082019050919050565b600061212b6025836125c1565b91507f45524332303a2064656372656173656420616c6c6f77616e63652062656c6f7760008301527f207a65726f0000000000000000000000000000000000000000000000000000006020830152604082019050919050565b6000612191601f836125c1565b91507f45524332303a206d696e7420746f20746865207a65726f2061646472657373006000830152602082019050919050565b60006121d16017836125c1565b91507f4e4f542054494d4520544f20434c49414d20544f4b454e0000000000000000006000830152602082019050919050565b60c08201600082015161221a600085018261227f565b50602082015161222d602085018261227f565b506040820151612240604085018261227f565b506060820151612253606085018261227f565b506080820151612266608085018261227f565b5060a082015161227960a085018261227f565b50505050565b61228881612725565b82525050565b61229781612725565b82525050565b6122a68161272f565b82525050565b60006020820190506122c16000830184611d17565b92915050565b60006060820190506122dc6000830186611d17565b6122e96020830185611d17565b6122f6604083018461228e565b949350505050565b60006040820190506123136000830185611d17565b612320602083018461228e565b9392505050565b600060208201905061233c6000830184611d26565b92915050565b6000602082019050818103600083015261235c8184611d35565b905092915050565b6000602082019050818103600083015261237d81611d6e565b9050919050565b6000602082019050818103600083015261239d81611dd4565b9050919050565b600060208201905081810360008301526123bd81611e3a565b9050919050565b600060208201905081810360008301526123dd81611ea0565b9050919050565b600060208201905081810360008301526123fd81611f06565b9050919050565b6000602082019050818103600083015261241d81611f46565b9050919050565b6000602082019050818103600083015261243d81611fac565b9050919050565b6000602082019050818103600083015261245d81611fec565b9050919050565b6000602082019050818103600083015261247d81612052565b9050919050565b6000602082019050818103600083015261249d816120b8565b9050919050565b600060208201905081810360008301526124bd8161211e565b9050919050565b600060208201905081810360008301526124dd81612184565b9050919050565b600060208201905081810360008301526124fd816121c4565b9050919050565b600060c0820190506125196000830184612204565b92915050565b6000602082019050612534600083018461228e565b92915050565b600060c08201905061254f600083018961228e565b61255c602083018861228e565b612569604083018761228e565b612576606083018661228e565b612583608083018561228e565b61259060a083018461228e565b979650505050505050565b60006020820190506125b0600083018461229d565b92915050565b600081519050919050565b600082825260208201905092915050565b60006125dd82612725565b91506125e883612725565b9250827fffffffffffffffffffffffffffffffffffffffffffffffffffffffffffffffff0382111561261d5761261c6127ea565b5b828201905092915050565b600061263382612725565b915061263e83612725565b92508261264e5761264d612819565b5b828204905092915050565b600061266482612725565b915061266f83612725565b9250817fffffffffffffffffffffffffffffffffffffffffffffffffffffffffffffffff04831182151516156126a8576126a76127ea565b5b828202905092915050565b60006126be82612725565b91506126c983612725565b9250828210156126dc576126db6127ea565b5b828203905092915050565b60006126f282612705565b9050919050565b60008115159050919050565b600073ffffffffffffffffffffffffffffffffffffffff82169050919050565b6000819050919050565b600060ff82169050919050565b60005b8381101561275a57808201518184015260208101905061273f565b83811115612769576000848401525b50505050565b6000600282049050600182168061278757607f821691505b6020821081141561279b5761279a612848565b5b50919050565b60006127ac82612725565b91507fffffffffffffffffffffffffffffffffffffffffffffffffffffffffffffffff8214156127df576127de6127ea565b5b600182019050919050565b7f4e487b7100000000000000000000000000000000000000000000000000000000600052601160045260246000fd5b7f4e487b7100000000000000000000000000000000000000000000000000000000600052601260045260246000fd5b7f4e487b7100000000000000000000000000000000000000000000000000000000600052602260045260246000fd5b6000601f19601f8301169050919050565b612891816126e7565b811461289c57600080fd5b50565b6128a881612725565b81146128b357600080fd5b5056fea2646970667358221220cf32381d3da17ad390db939a8278fd09274f7ecb1d9851371209d0a2c7e6cb9264736f6c63430008000033",
  "linkReferences": {},
  "deployedLinkReferences": {}
}